{
  "contractName": "MlPlatformFactory",
  "abi": [
    {
      "inputs": [],
      "stateMutability": "nonpayable",
      "type": "constructor"
    },
    {
      "anonymous": false,
      "inputs": [
        {
          "indexed": false,
          "internalType": "address",
          "name": "owner",
          "type": "address"
        },
        {
          "indexed": false,
          "internalType": "address",
          "name": "mlPlatformAddress",
          "type": "address"
        },
        {
          "indexed": false,
          "internalType": "uint256",
          "name": "contractId",
          "type": "uint256"
        },
        {
          "indexed": false,
          "internalType": "uint256",
          "name": "ddlTimestamp",
          "type": "uint256"
        },
        {
          "indexed": false,
          "internalType": "uint256",
          "name": "depositRequired",
          "type": "uint256"
        }
      ],
      "name": "MlPlatformCreated",
      "type": "event"
    },
    {
      "inputs": [],
      "name": "contractCount",
      "outputs": [
        {
          "internalType": "uint256",
          "name": "",
          "type": "uint256"
        }
      ],
      "stateMutability": "view",
      "type": "function",
      "constant": true
    },
    {
      "inputs": [
        {
          "internalType": "address",
          "name": "",
          "type": "address"
        }
      ],
      "name": "contractToIndex",
      "outputs": [
        {
          "internalType": "uint256",
          "name": "",
          "type": "uint256"
        }
      ],
      "stateMutability": "view",
      "type": "function",
      "constant": true
    },
    {
      "inputs": [
        {
          "internalType": "uint256",
          "name": "",
          "type": "uint256"
        }
      ],
      "name": "idToContract",
      "outputs": [
        {
          "internalType": "address",
          "name": "",
          "type": "address"
        }
      ],
      "stateMutability": "view",
      "type": "function",
      "constant": true
    },
    {
      "inputs": [],
      "name": "oracleAddress",
      "outputs": [
        {
          "internalType": "address",
          "name": "",
          "type": "address"
        }
      ],
      "stateMutability": "view",
      "type": "function",
      "constant": true
    },
    {
      "inputs": [
        {
          "internalType": "address",
          "name": "",
          "type": "address"
        },
        {
          "internalType": "uint256",
          "name": "",
          "type": "uint256"
        }
      ],
      "name": "ownerToContractList",
      "outputs": [
        {
          "internalType": "uint256",
          "name": "",
          "type": "uint256"
        }
      ],
      "stateMutability": "view",
      "type": "function",
      "constant": true
    },
    {
      "inputs": [],
      "name": "platformOwner",
      "outputs": [
        {
          "internalType": "address",
          "name": "",
          "type": "address"
        }
      ],
      "stateMutability": "view",
      "type": "function",
      "constant": true
    },
    {
      "inputs": [],
      "name": "startBlock",
      "outputs": [
        {
          "internalType": "uint256",
          "name": "",
          "type": "uint256"
        }
      ],
      "stateMutability": "view",
      "type": "function",
      "constant": true
    },
    {
      "inputs": [
        {
          "internalType": "string",
          "name": "_modelAddress",
          "type": "string"
        },
        {
          "internalType": "string",
          "name": "_testDataHash",
          "type": "string"
        },
        {
          "internalType": "string",
          "name": "_testDataLabelHash",
          "type": "string"
        },
        {
          "internalType": "uint256",
          "name": "_timestamp",
          "type": "uint256"
        },
        {
          "internalType": "uint256",
          "name": "_depositRequired",
          "type": "uint256"
        }
      ],
      "name": "createMlPlatform",
      "outputs": [],
      "stateMutability": "payable",
      "type": "function",
      "payable": true
    },
    {
      "inputs": [
        {
          "internalType": "address",
          "name": "_newOwner",
          "type": "address"
        }
      ],
      "name": "transferPlatformOwnership",
      "outputs": [],
      "stateMutability": "nonpayable",
      "type": "function"
    },
    {
      "inputs": [
        {
          "internalType": "address",
          "name": "_owner",
          "type": "address"
        }
      ],
      "name": "getContractList",
      "outputs": [
        {
          "internalType": "uint256[]",
          "name": "",
          "type": "uint256[]"
        }
      ],
      "stateMutability": "view",
      "type": "function",
      "constant": true
    }
  ],
  "bytecode": "0x608060405273ac6c80b1afb4f2a4b1e663d58ec3332f8780e0a2600160006101000a81548173ffffffffffffffffffffffffffffffffffffffff021916908373ffffffffffffffffffffffffffffffffffffffff160217905550600060025534801561006a57600080fd5b50336000806101000a81548173ffffffffffffffffffffffffffffffffffffffff021916908373ffffffffffffffffffffffffffffffffffffffff160217905550436003819055506145a0806100c16000396000f3fe6080604052600436106200009e5760003560e01c80635f59e7c011620000615780635f59e7c014620001b95780635fddcc6014620001d95780638736381a146200021d57806389954b9b146200024d578063a89ae4ba1462000291576200009e565b8063046c155314620000a357806348cd4cb114620000d15780634df8ccb1146200010157806350ded7ba1462000131578063544d34a91462000175575b600080fd5b348015620000b057600080fd5b50620000cf6004803603810190620000c99190620007f0565b620002c1565b005b348015620000de57600080fd5b50620000e962000395565b604051620000f891906200083d565b60405180910390f35b3480156200010e57600080fd5b50620001196200039b565b6040516200012891906200086b565b60405180910390f35b3480156200013e57600080fd5b506200015d6004803603810190620001579190620007f0565b620003bf565b6040516200016c91906200083d565b60405180910390f35b3480156200018257600080fd5b50620001a160048036038101906200019b9190620007f0565b620003d7565b604051620001b0919062000956565b60405180910390f35b620001d76004803603810190620001d1919062000b0d565b62000470565b005b348015620001e657600080fd5b50620002056004803603810190620001ff919062000bf2565b620006d8565b6040516200021491906200086b565b60405180910390f35b3480156200022a57600080fd5b50620002356200070b565b6040516200024491906200083d565b60405180910390f35b3480156200025a57600080fd5b5062000279600480360381019062000273919062000c24565b62000711565b6040516200028891906200083d565b60405180910390f35b3480156200029e57600080fd5b50620002a962000743565b604051620002b891906200086b565b60405180910390f35b60008054906101000a900473ffffffffffffffffffffffffffffffffffffffff1673ffffffffffffffffffffffffffffffffffffffff163373ffffffffffffffffffffffffffffffffffffffff161462000352576040517f08c379a0000000000000000000000000000000000000000000000000000000008152600401620003499062000cf2565b60405180910390fd5b806000806101000a81548173ffffffffffffffffffffffffffffffffffffffff021916908373ffffffffffffffffffffffffffffffffffffffff16021790555050565b60035481565b60008054906101000a900473ffffffffffffffffffffffffffffffffffffffff1681565b60066020528060005260406000206000915090505481565b6060600460008373ffffffffffffffffffffffffffffffffffffffff1673ffffffffffffffffffffffffffffffffffffffff1681526020019081526020016000208054806020026020016040519081016040528092919081815260200182805480156200046457602002820191906000526020600020905b8154815260200190600101908083116200044f575b50505050509050919050565b612710341015620004b8576040517f08c379a0000000000000000000000000000000000000000000000000000000008152600401620004af9062000d64565b60405180910390fd5b42821015620004fe576040517f08c379a0000000000000000000000000000000000000000000000000000000008152600401620004f59062000dfc565b60405180910390fd5b600034600160009054906101000a900473ffffffffffffffffffffffffffffffffffffffff16338888888888604051620005389062000769565b6200054a979695949392919062000ea0565b6040518091039082f090508015801562000568573d6000803e3d6000fd5b509050600081905060026000815480929190620005859062000f61565b9190505550600460003373ffffffffffffffffffffffffffffffffffffffff1673ffffffffffffffffffffffffffffffffffffffff16815260200190815260200160002060025490806001815401808255809150506001900390600052602060002001600090919091909150558060056000600254815260200190815260200160002060006101000a81548173ffffffffffffffffffffffffffffffffffffffff021916908373ffffffffffffffffffffffffffffffffffffffff160217905550600254600660008373ffffffffffffffffffffffffffffffffffffffff1673ffffffffffffffffffffffffffffffffffffffff168152602001908152602001600020819055507f58399bf012b788a99b680a6a0d47f159d9c98a47385d040d989b9a75a8fa666033826002548787604051620006c795949392919062000fae565b60405180910390a150505050505050565b60056020528060005260406000206000915054906101000a900473ffffffffffffffffffffffffffffffffffffffff1681565b60025481565b600460205281600052604060002081815481106200072e57600080fd5b90600052602060002001600091509150505481565b600160009054906101000a900473ffffffffffffffffffffffffffffffffffffffff1681565b61355f806200100c83390190565b6000604051905090565b600080fd5b600080fd5b600073ffffffffffffffffffffffffffffffffffffffff82169050919050565b6000620007b8826200078b565b9050919050565b620007ca81620007ab565b8114620007d657600080fd5b50565b600081359050620007ea81620007bf565b92915050565b60006020828403121562000809576200080862000781565b5b60006200081984828501620007d9565b91505092915050565b6000819050919050565b620008378162000822565b82525050565b60006020820190506200085460008301846200082c565b92915050565b6200086581620007ab565b82525050565b60006020820190506200088260008301846200085a565b92915050565b600081519050919050565b600082825260208201905092915050565b6000819050602082019050919050565b620008bf8162000822565b82525050565b6000620008d38383620008b4565b60208301905092915050565b6000602082019050919050565b6000620008f98262000888565b62000905818562000893565b93506200091283620008a4565b8060005b83811015620009495781516200092d8882620008c5565b97506200093a83620008df565b92505060018101905062000916565b5085935050505092915050565b60006020820190508181036000830152620009728184620008ec565b905092915050565b600080fd5b600080fd5b6000601f19601f8301169050919050565b7f4e487b7100000000000000000000000000000000000000000000000000000000600052604160045260246000fd5b620009cf8262000984565b810181811067ffffffffffffffff82111715620009f157620009f062000995565b5b80604052505050565b600062000a0662000777565b905062000a148282620009c4565b919050565b600067ffffffffffffffff82111562000a375762000a3662000995565b5b62000a428262000984565b9050602081019050919050565b82818337600083830152505050565b600062000a7562000a6f8462000a19565b620009fa565b90508281526020810184848401111562000a945762000a936200097f565b5b62000aa184828562000a4f565b509392505050565b600082601f83011262000ac15762000ac06200097a565b5b813562000ad384826020860162000a5e565b91505092915050565b62000ae78162000822565b811462000af357600080fd5b50565b60008135905062000b078162000adc565b92915050565b600080600080600060a0868803121562000b2c5762000b2b62000781565b5b600086013567ffffffffffffffff81111562000b4d5762000b4c62000786565b5b62000b5b8882890162000aa9565b955050602086013567ffffffffffffffff81111562000b7f5762000b7e62000786565b5b62000b8d8882890162000aa9565b945050604086013567ffffffffffffffff81111562000bb15762000bb062000786565b5b62000bbf8882890162000aa9565b935050606062000bd28882890162000af6565b925050608062000be58882890162000af6565b9150509295509295909350565b60006020828403121562000c0b5762000c0a62000781565b5b600062000c1b8482850162000af6565b91505092915050565b6000806040838503121562000c3e5762000c3d62000781565b5b600062000c4e85828601620007d9565b925050602062000c618582860162000af6565b9150509250929050565b600082825260208201905092915050565b7f4f6e6c792074686520636f6e7472616374206f776e65722063616e2063616c6c60008201527f20746869732066756e6374696f6e2e0000000000000000000000000000000000602082015250565b600062000cda602f8362000c6b565b915062000ce78262000c7c565b604082019050919050565b6000602082019050818103600083015262000d0d8162000ccb565b9050919050565b7f506c656173652070757420656e6f756768207265776172642e00000000000000600082015250565b600062000d4c60198362000c6b565b915062000d598262000d14565b602082019050919050565b6000602082019050818103600083015262000d7f8162000d3d565b9050919050565b7f506c656173652070757420612076616c69642064646c2074696d657374616d7060008201527f2e00000000000000000000000000000000000000000000000000000000000000602082015250565b600062000de460218362000c6b565b915062000df18262000d86565b604082019050919050565b6000602082019050818103600083015262000e178162000dd5565b9050919050565b600081519050919050565b60005b8381101562000e4957808201518184015260208101905062000e2c565b8381111562000e59576000848401525b50505050565b600062000e6c8262000e1e565b62000e78818562000c6b565b935062000e8a81856020860162000e29565b62000e958162000984565b840191505092915050565b600060e08201905062000eb7600083018a6200085a565b62000ec660208301896200085a565b818103604083015262000eda818862000e5f565b9050818103606083015262000ef0818762000e5f565b9050818103608083015262000f06818662000e5f565b905062000f1760a08301856200082c565b62000f2660c08301846200082c565b98975050505050505050565b7f4e487b7100000000000000000000000000000000000000000000000000000000600052601160045260246000fd5b600062000f6e8262000822565b91507fffffffffffffffffffffffffffffffffffffffffffffffffffffffffffffffff820362000fa35762000fa262000f32565b5b600182019050919050565b600060a08201905062000fc560008301886200085a565b62000fd460208301876200085a565b62000fe360408301866200082c565b62000ff260608301856200082c565b6200100160808301846200082c565b969550505050505056fe6080604052600a600c55600160145560016015556040516200355f3803806200355f83398181016040528101906200003891906200047f565b606434116200007e576040517f08c379a00000000000000000000000000000000000000000000000000000000081526004016200007590620005f0565b60405180910390fd5b866000806101000a81548173ffffffffffffffffffffffffffffffffffffffff021916908373ffffffffffffffffffffffffffffffffffffffff16021790555085600160006101000a81548173ffffffffffffffffffffffffffffffffffffffff021916908373ffffffffffffffffffffffffffffffffffffffff16021790555084600490805190602001906200011792919062000192565b5083600590805190602001906200013092919062000192565b5082600690805190602001906200014992919062000192565b504260028190555081600381905550346007819055506000600981905550600160088190555080600b819055506001600d8190555043600e819055505050505050505062000676565b828054620001a09062000641565b90600052602060002090601f016020900481019282620001c4576000855562000210565b82601f10620001df57805160ff191683800117855562000210565b8280016001018555821562000210579182015b828111156200020f578251825591602001919060010190620001f2565b5b5090506200021f919062000223565b5090565b5b808211156200023e57600081600090555060010162000224565b5090565b6000604051905090565b600080fd5b600080fd5b600073ffffffffffffffffffffffffffffffffffffffff82169050919050565b6000620002838262000256565b9050919050565b620002958162000276565b8114620002a157600080fd5b50565b600081519050620002b5816200028a565b92915050565b600080fd5b600080fd5b6000601f19601f8301169050919050565b7f4e487b7100000000000000000000000000000000000000000000000000000000600052604160045260246000fd5b6200031082620002c5565b810181811067ffffffffffffffff82111715620003325762000331620002d6565b5b80604052505050565b60006200034762000242565b905062000355828262000305565b919050565b600067ffffffffffffffff821115620003785762000377620002d6565b5b6200038382620002c5565b9050602081019050919050565b60005b83811015620003b057808201518184015260208101905062000393565b83811115620003c0576000848401525b50505050565b6000620003dd620003d7846200035a565b6200033b565b905082815260208101848484011115620003fc57620003fb620002c0565b5b6200040984828562000390565b509392505050565b600082601f830112620004295762000428620002bb565b5b81516200043b848260208601620003c6565b91505092915050565b6000819050919050565b620004598162000444565b81146200046557600080fd5b50565b60008151905062000479816200044e565b92915050565b600080600080600080600060e0888a031215620004a157620004a06200024c565b5b6000620004b18a828b01620002a4565b9750506020620004c48a828b01620002a4565b965050604088015167ffffffffffffffff811115620004e857620004e762000251565b5b620004f68a828b0162000411565b955050606088015167ffffffffffffffff8111156200051a576200051962000251565b5b620005288a828b0162000411565b945050608088015167ffffffffffffffff8111156200054c576200054b62000251565b5b6200055a8a828b0162000411565b93505060a06200056d8a828b0162000468565b92505060c0620005808a828b0162000468565b91505092959891949750929550565b600082825260208201905092915050565b7f506c6561736520707574206465706f736974652e000000000000000000000000600082015250565b6000620005d86014836200058f565b9150620005e582620005a0565b602082019050919050565b600060208201905081810360008301526200060b81620005c9565b9050919050565b7f4e487b7100000000000000000000000000000000000000000000000000000000600052602260045260246000fd5b600060028204905060018216806200065a57607f821691505b60208210810362000670576200066f62000612565b5b50919050565b612ed980620006866000396000f3fe6080604052600436106101b75760003560e01c80637816e2ed116100ec578063d094ae411161008a578063e6fd48bc11610064578063e6fd48bc146105e6578063f07ff64114610611578063f2fde38b1461063c578063ff28bcc214610665576101b7565b8063d094ae4114610555578063dc90819814610592578063df125333146105bd576101b7565b8063a85adeab116100c6578063a85adeab146104a9578063a89ae4ba146104d4578063c6ee20d2146104ff578063ce606ee01461052a576101b7565b80637816e2ed146104255780638d8a55e7146104505780639c0afe601461048d576101b7565b806339588f10116101595780635841dcb3116101335780635841dcb31461037b578063622aef9e146103a457806366666aa9146103cf5780636a84a985146103fa576101b7565b806339588f10146102ea578063498a4c2d146103275780634c69c00f14610352576101b7565b80632a9605f4116101955780632a9605f41461021a5780632e85d485146102455780633597d0e71461027057806338495cdf146102ad576101b7565b8063202cefd5146101bc57806323a21c4c146101d357806326232a2e146101ef575b600080fd5b3480156101c857600080fd5b506101d161066f565b005b6101ed60048036038101906101e89190611c81565b6107b5565b005b3480156101fb57600080fd5b50610204610ac1565b6040516102119190611ce3565b60405180910390f35b34801561022657600080fd5b5061022f610ac7565b60405161023c9190611ce3565b60405180910390f35b34801561025157600080fd5b5061025a610acd565b6040516102679190611ce3565b60405180910390f35b34801561027c57600080fd5b5061029760048036038101906102929190611d2a565b610b14565b6040516102a49190611ddf565b60405180910390f35b3480156102b957600080fd5b506102d460048036038101906102cf9190611d2a565b610bb4565b6040516102e19190611e42565b60405180910390f35b3480156102f657600080fd5b50610311600480360381019061030c9190611d2a565b610be7565b60405161031e9190611ce3565b60405180910390f35b34801561033357600080fd5b5061033c610bff565b6040516103499190611ce3565b60405180910390f35b34801561035e57600080fd5b5061037960048036038101906103749190611e89565b610c05565b005b34801561038757600080fd5b506103a2600480360381019061039d9190611eb6565b610cd8565b005b3480156103b057600080fd5b506103b9611075565b6040516103c69190611ce3565b60405180910390f35b3480156103db57600080fd5b506103e461107b565b6040516103f19190611ce3565b60405180910390f35b34801561040657600080fd5b5061040f611081565b60405161041c9190611ce3565b60405180910390f35b34801561043157600080fd5b5061043a611087565b6040516104479190611ce3565b60405180910390f35b34801561045c57600080fd5b5061047760048036038101906104729190611e89565b61108d565b6040516104849190611ce3565b60405180910390f35b6104a760048036038101906104a29190611f2e565b6110a5565b005b3480156104b557600080fd5b506104be611225565b6040516104cb9190611ce3565b60405180910390f35b3480156104e057600080fd5b506104e961122b565b6040516104f69190611e42565b60405180910390f35b34801561050b57600080fd5b5061051461124f565b6040516105219190611ce3565b60405180910390f35b34801561053657600080fd5b5061053f611255565b60405161054c9190611e42565b60405180910390f35b34801561056157600080fd5b5061057c60048036038101906105779190611d2a565b61127b565b6040516105899190611ce3565b60405180910390f35b34801561059e57600080fd5b506105a7611293565b6040516105b49190611ce3565b60405180910390f35b3480156105c957600080fd5b506105e460048036038101906105df91906120b7565b611299565b005b3480156105f257600080fd5b506105fb611497565b6040516106089190611ce3565b60405180910390f35b34801561061d57600080fd5b5061062661149d565b6040516106339190611ce3565b60405180910390f35b34801561064857600080fd5b50610663600480360381019061065e9190611e89565b6114a3565b005b61066d611577565b005b60008054906101000a900473ffffffffffffffffffffffffffffffffffffffff1673ffffffffffffffffffffffffffffffffffffffff163373ffffffffffffffffffffffffffffffffffffffff16146106fd576040517f08c379a00000000000000000000000000000000000000000000000000000000081526004016106f490612214565b60405180910390fd5b6000600a5411610742576040517f08c379a000000000000000000000000000000000000000000000000000000000815260040161073990612280565b60405180910390fd5b60008054906101000a900473ffffffffffffffffffffffffffffffffffffffff1673ffffffffffffffffffffffffffffffffffffffff166108fc600a549081150290604051600060405180830381858888f193505050501580156107aa573d6000803e3d6000fd5b506000600a81905550565b6001600854146107fa576040517f08c379a00000000000000000000000000000000000000000000000000000000081526004016107f190612312565b60405180910390fd5b600b5434101561083f576040517f08c379a0000000000000000000000000000000000000000000000000000000008152600401610836906123a4565b60405180910390fd5b600354421115610884576040517f08c379a000000000000000000000000000000000000000000000000000000000815260040161087b90612410565b60405180910390fd5b600c54600a6000828254610898919061245f565b925050819055506000600c54346108af91906124b5565b905080600960008282546108c3919061245f565b92505081905550600080601060003373ffffffffffffffffffffffffffffffffffffffff1673ffffffffffffffffffffffffffffffffffffffff16815260200190815260200160002054036109e95733600f6000601554815260200190815260200160002060006101000a81548173ffffffffffffffffffffffffffffffffffffffff021916908373ffffffffffffffffffffffffffffffffffffffff160217905550601554601060003373ffffffffffffffffffffffffffffffffffffffff1673ffffffffffffffffffffffffffffffffffffffff168152602001908152602001600020819055506064601260006015548152602001908152602001600020819055506015549050601560008154809291906109df906124e9565b9190505550610a2c565b601060003373ffffffffffffffffffffffffffffffffffffffff1673ffffffffffffffffffffffffffffffffffffffff1681526020019081526020016000205490505b81601360008381526020019081526020016000208190555082601160008381526020019081526020016000209080519060200190610a6b929190611a84565b507f87ca3e1742bfbecb6f148e63fb9bfdccee8032e23618cf9a01b05cabfb1a4d678184601260008581526020019081526020016000205443604051610ab49493929190612531565b60405180910390a1505050565b600c5481565b600b5481565b6000601060003373ffffffffffffffffffffffffffffffffffffffff1673ffffffffffffffffffffffffffffffffffffffff16815260200190815260200160002054905090565b60116020528060005260406000206000915090508054610b33906125ac565b80601f0160208091040260200160405190810160405280929190818152602001828054610b5f906125ac565b8015610bac5780601f10610b8157610100808354040283529160200191610bac565b820191906000526020600020905b815481529060010190602001808311610b8f57829003601f168201915b505050505081565b600f6020528060005260406000206000915054906101000a900473ffffffffffffffffffffffffffffffffffffffff1681565b60126020528060005260406000206000915090505481565b600e5481565b600160009054906101000a900473ffffffffffffffffffffffffffffffffffffffff1673ffffffffffffffffffffffffffffffffffffffff163373ffffffffffffffffffffffffffffffffffffffff1614610c95576040517f08c379a0000000000000000000000000000000000000000000000000000000008152600401610c8c9061264f565b60405180910390fd5b806000806101000a81548173ffffffffffffffffffffffffffffffffffffffff021916908373ffffffffffffffffffffffffffffffffffffffff16021790555050565b60008054906101000a900473ffffffffffffffffffffffffffffffffffffffff1673ffffffffffffffffffffffffffffffffffffffff163373ffffffffffffffffffffffffffffffffffffffff161480610d7f5750600160009054906101000a900473ffffffffffffffffffffffffffffffffffffffff1673ffffffffffffffffffffffffffffffffffffffff163373ffffffffffffffffffffffffffffffffffffffff16145b80610dca57506000601060003373ffffffffffffffffffffffffffffffffffffffff1673ffffffffffffffffffffffffffffffffffffffff1681526020019081526020016000205414155b610e09576040517f08c379a0000000000000000000000000000000000000000000000000000000008152600401610e00906126e1565b60405180910390fd5b600160085414610e4e576040517f08c379a0000000000000000000000000000000000000000000000000000000008152600401610e4590612312565b60405180910390fd5b600160085414610e93576040517f08c379a0000000000000000000000000000000000000000000000000000000008152600401610e8a90612773565b60405180910390fd5b600160009054906101000a900473ffffffffffffffffffffffffffffffffffffffff1673ffffffffffffffffffffffffffffffffffffffff163373ffffffffffffffffffffffffffffffffffffffff161480610f3a575060008054906101000a900473ffffffffffffffffffffffffffffffffffffffff1673ffffffffffffffffffffffffffffffffffffffff163373ffffffffffffffffffffffffffffffffffffffff16145b15610f8957600354421015610f84576040517f08c379a0000000000000000000000000000000000000000000000000000000008152600401610f7b90612805565b60405180910390fd5b61105f565b62015180600354610f9a919061245f565b421015610fdc576040517f08c379a0000000000000000000000000000000000000000000000000000000008152600401610fd3906128bd565b60405180910390fd5b6000601060003373ffffffffffffffffffffffffffffffffffffffff1673ffffffffffffffffffffffffffffffffffffffff168152602001908152602001600020540361105e576040517f08c379a00000000000000000000000000000000000000000000000000000000081526004016110559061294f565b60405180910390fd5b5b60026008819055506110718282611622565b5050565b600a5481565b60075481565b60145481565b60155481565b60106020528060005260406000206000915090505481565b6003600854146110ea576040517f08c379a00000000000000000000000000000000000000000000000000000000081526004016110e1906129e1565b60405180910390fd5b600160009054906101000a900473ffffffffffffffffffffffffffffffffffffffff1673ffffffffffffffffffffffffffffffffffffffff163373ffffffffffffffffffffffffffffffffffffffff161461117a576040517f08c379a00000000000000000000000000000000000000000000000000000000081526004016111719061264f565b60405180910390fd5b600034116111bd576040517f08c379a00000000000000000000000000000000000000000000000000000000081526004016111b490612a4d565b60405180910390fd5b3460078190555060016008819055504260028190555082600381905550600d60008154809291906111ed906124e9565b91905055508160059080519060200190611208929190611a84565b50806006908051906020019061121f929190611a84565b50505050565b60035481565b60008054906101000a900473ffffffffffffffffffffffffffffffffffffffff1681565b60085481565b600160009054906101000a900473ffffffffffffffffffffffffffffffffffffffff1681565b60136020528060005260406000206000915090505481565b600d5481565b60008054906101000a900473ffffffffffffffffffffffffffffffffffffffff1673ffffffffffffffffffffffffffffffffffffffff163373ffffffffffffffffffffffffffffffffffffffff1614611327576040517f08c379a000000000000000000000000000000000000000000000000000000000815260040161131e90612214565b60405180910390fd5b60026008541461136c576040517f08c379a000000000000000000000000000000000000000000000000000000000815260040161136390612adf565b60405180910390fd5b60005b83518110156114395782818151811061138b5761138a612aff565b5b6020026020010151601260008684815181106113aa576113a9612aff565b5b602002602001015181526020019081526020016000208190555060008282815181106113d9576113d8612aff565b5b60200260200101511315611426576114258482815181106113fd576113fc612aff565b5b602002602001015183838151811061141857611417612aff565b5b60200260200101516117ff565b5b8080611431906124e9565b91505061136f565b508360049080519060200190611450929190611a84565b507f954d615937b753cf2f287614528733409a3de499a41a341cd1dbf43b24ab0c0f856040516114809190611ce3565b60405180910390a160036008819055505050505050565b60025481565b60095481565b600160009054906101000a900473ffffffffffffffffffffffffffffffffffffffff1673ffffffffffffffffffffffffffffffffffffffff163373ffffffffffffffffffffffffffffffffffffffff1614611533576040517f08c379a000000000000000000000000000000000000000000000000000000000815260040161152a9061264f565b60405180910390fd5b80600160006101000a81548173ffffffffffffffffffffffffffffffffffffffff021916908373ffffffffffffffffffffffffffffffffffffffff16021790555050565b600160009054906101000a900473ffffffffffffffffffffffffffffffffffffffff1673ffffffffffffffffffffffffffffffffffffffff163373ffffffffffffffffffffffffffffffffffffffff1614611607576040517f08c379a00000000000000000000000000000000000000000000000000000000081526004016115fe9061264f565b60405180910390fd5b3460076000828254611619919061245f565b92505081905550565b600060145490507faa6d410a17ec6f559fb71643fa84c722d4a372374e7227298461831a170bfbc18160075460405161165c929190612b2e565b60405180910390a17fee4d138a9a331ee506450fae35e80901dc1d1a0f88d7fe870fabfc6fe8dcdc508160048585600560066040516116a096959493929190612bec565b60405180910390a16000600190505b6015548110156117aa576040518060200160405280600081525080519060200120601160008381526020019081526020016000206040516116f09190612d0f565b604051809103902014611797577f3910115e651db63dac5c27949180dc96d86ef98258722028d7794c96cd9aa48d82826011600085815260200190815260200160002060126000868152602001908152602001600020546040516117579493929190612d26565b60405180910390a160405180602001604052806000815250601160008381526020019081526020016000209080519060200190611795929190611a84565b505b80806117a2906124e9565b9150506116af565b507f93a213c4c585fbfd035779d3ae8b51184493956fde5f124674c38a9927e389f7816040516117da9190611ce3565b60405180910390a1601460008154809291906117f5906124e9565b9190505550505050565b806007541015611844576040517f08c379a000000000000000000000000000000000000000000000000000000000815260040161183b90612de4565b60405180910390fd5b806007600082825461185691906124b5565b92505081905550600f600083815260200190815260200160002060009054906101000a900473ffffffffffffffffffffffffffffffffffffffff1673ffffffffffffffffffffffffffffffffffffffff166108fc6001836118b79190612e04565b9081150290604051600060405180830381858888f193505050501580156118e2573d6000803e3d6000fd5b507ffc35a7fc75410ff2971292bbdf499a190de5b4398ed6a932872f501626076e368282600d54600f600087815260200190815260200160002060009054906101000a900473ffffffffffffffffffffffffffffffffffffffff1660405161194d9493929190612e5e565b60405180910390a1600f600083815260200190815260200160002060009054906101000a900473ffffffffffffffffffffffffffffffffffffffff1673ffffffffffffffffffffffffffffffffffffffff166108fc60136000858152602001908152602001600020549081150290604051600060405180830381858888f193505050501580156119e1573d6000803e3d6000fd5b50600060136000848152602001908152602001600020819055507fcf324f29380ced4cf033bec454d0662e8e0d8f7085241cc4e67fe12ec78c4b3e826013600085815260200190815260200160002054600d54600f600087815260200190815260200160002060009054906101000a900473ffffffffffffffffffffffffffffffffffffffff16604051611a789493929190612e5e565b60405180910390a15050565b828054611a90906125ac565b90600052602060002090601f016020900481019282611ab25760008555611af9565b82601f10611acb57805160ff1916838001178555611af9565b82800160010185558215611af9579182015b82811115611af8578251825591602001919060010190611add565b5b509050611b069190611b0a565b5090565b5b80821115611b23576000816000905550600101611b0b565b5090565b6000604051905090565b600080fd5b600080fd5b600080fd5b600080fd5b6000601f19601f8301169050919050565b7f4e487b7100000000000000000000000000000000000000000000000000000000600052604160045260246000fd5b611b8e82611b45565b810181811067ffffffffffffffff82111715611bad57611bac611b56565b5b80604052505050565b6000611bc0611b27565b9050611bcc8282611b85565b919050565b600067ffffffffffffffff821115611bec57611beb611b56565b5b611bf582611b45565b9050602081019050919050565b82818337600083830152505050565b6000611c24611c1f84611bd1565b611bb6565b905082815260208101848484011115611c4057611c3f611b40565b5b611c4b848285611c02565b509392505050565b600082601f830112611c6857611c67611b3b565b5b8135611c78848260208601611c11565b91505092915050565b600060208284031215611c9757611c96611b31565b5b600082013567ffffffffffffffff811115611cb557611cb4611b36565b5b611cc184828501611c53565b91505092915050565b6000819050919050565b611cdd81611cca565b82525050565b6000602082019050611cf86000830184611cd4565b92915050565b611d0781611cca565b8114611d1257600080fd5b50565b600081359050611d2481611cfe565b92915050565b600060208284031215611d4057611d3f611b31565b5b6000611d4e84828501611d15565b91505092915050565b600081519050919050565b600082825260208201905092915050565b60005b83811015611d91578082015181840152602081019050611d76565b83811115611da0576000848401525b50505050565b6000611db182611d57565b611dbb8185611d62565b9350611dcb818560208601611d73565b611dd481611b45565b840191505092915050565b60006020820190508181036000830152611df98184611da6565b905092915050565b600073ffffffffffffffffffffffffffffffffffffffff82169050919050565b6000611e2c82611e01565b9050919050565b611e3c81611e21565b82525050565b6000602082019050611e576000830184611e33565b92915050565b611e6681611e21565b8114611e7157600080fd5b50565b600081359050611e8381611e5d565b92915050565b600060208284031215611e9f57611e9e611b31565b5b6000611ead84828501611e74565b91505092915050565b60008060408385031215611ecd57611ecc611b31565b5b600083013567ffffffffffffffff811115611eeb57611eea611b36565b5b611ef785828601611c53565b925050602083013567ffffffffffffffff811115611f1857611f17611b36565b5b611f2485828601611c53565b9150509250929050565b600080600060608486031215611f4757611f46611b31565b5b6000611f5586828701611d15565b935050602084013567ffffffffffffffff811115611f7657611f75611b36565b5b611f8286828701611c53565b925050604084013567ffffffffffffffff811115611fa357611fa2611b36565b5b611faf86828701611c53565b9150509250925092565b600067ffffffffffffffff821115611fd457611fd3611b56565b5b602082029050602081019050919050565b600080fd5b6000819050919050565b611ffd81611fea565b811461200857600080fd5b50565b60008135905061201a81611ff4565b92915050565b600061203361202e84611fb9565b611bb6565b9050808382526020820190506020840283018581111561205657612055611fe5565b5b835b8181101561207f578061206b888261200b565b845260208401935050602081019050612058565b5050509392505050565b600082601f83011261209e5761209d611b3b565b5b81356120ae848260208601612020565b91505092915050565b600080600080600060a086880312156120d3576120d2611b31565b5b60006120e188828901611d15565b955050602086013567ffffffffffffffff81111561210257612101611b36565b5b61210e88828901611c53565b945050604086013567ffffffffffffffff81111561212f5761212e611b36565b5b61213b88828901612089565b935050606086013567ffffffffffffffff81111561215c5761215b611b36565b5b61216888828901612089565b925050608086013567ffffffffffffffff81111561218957612188611b36565b5b61219588828901612089565b9150509295509295909350565b7f4f6e6c7920746865206f7261636c652063616e2063616c6c207468697320667560008201527f6e6374696f6e2e00000000000000000000000000000000000000000000000000602082015250565b60006121fe602783611d62565b9150612209826121a2565b604082019050919050565b6000602082019050818103600083015261222d816121f1565b9050919050565b7f4e6f20706c6174666f726d2066656520746f2077697468647261772e00000000600082015250565b600061226a601c83611d62565b915061227582612234565b602082019050919050565b600060208201905081810360008301526122998161225d565b9050919050565b7f54686520636f6e7472616374206973206e6f7420696e20746865207375626d6960008201527f7373696f6e2073746167652e0000000000000000000000000000000000000000602082015250565b60006122fc602c83611d62565b9150612307826122a0565b604082019050919050565b6000602082019050818103600083015261232b816122ef565b9050919050565b7f506c6561736520707574206465706f7369746520656e6f75676820776569206160008201527f63636f7264696e6720746f2074686520636f6e74726163742e00000000000000602082015250565b600061238e603983611d62565b915061239982612332565b604082019050919050565b600060208201905081810360008301526123bd81612381565b9050919050565b7f546865207375626d697373696f6e20706572696f642068617320656e6465642e600082015250565b60006123fa602083611d62565b9150612405826123c4565b602082019050919050565b60006020820190508181036000830152612429816123ed565b9050919050565b7f4e487b7100000000000000000000000000000000000000000000000000000000600052601160045260246000fd5b600061246a82611cca565b915061247583611cca565b9250827fffffffffffffffffffffffffffffffffffffffffffffffffffffffffffffffff038211156124aa576124a9612430565b5b828201905092915050565b60006124c082611cca565b91506124cb83611cca565b9250828210156124de576124dd612430565b5b828203905092915050565b60006124f482611cca565b91507fffffffffffffffffffffffffffffffffffffffffffffffffffffffffffffffff820361252657612525612430565b5b600182019050919050565b60006080820190506125466000830187611cd4565b81810360208301526125588186611da6565b90506125676040830185611cd4565b6125746060830184611cd4565b95945050505050565b7f4e487b7100000000000000000000000000000000000000000000000000000000600052602260045260246000fd5b600060028204905060018216806125c457607f821691505b6020821081036125d7576125d661257d565b5b50919050565b7f4f6e6c792074686520636f6e7472616374206f776e65722063616e2063616c6c60008201527f20746869732066756e6374696f6e2e0000000000000000000000000000000000602082015250565b6000612639602f83611d62565b9150612644826125dd565b604082019050919050565b600060208201905081810360008301526126688161262c565b9050919050565b7f4f6e6c7920746865207061727469636970616e74732063616e2063616c6c207460008201527f6869732066756e6374696f6e2e00000000000000000000000000000000000000602082015250565b60006126cb602d83611d62565b91506126d68261266f565b604082019050919050565b600060208201905081810360008301526126fa816126be565b9050919050565b7f54686520636f6e7472616374206576616c756174696f6e20737461676520686160008201527f73206265656e20737461727465642e0000000000000000000000000000000000602082015250565b600061275d602f83611d62565b915061276882612701565b604082019050919050565b6000602082019050818103600083015261278c81612750565b9050919050565b7f546865207375626d697373696f6e20706572696f6420686173206e6f7420656e60008201527f646564207965742e000000000000000000000000000000000000000000000000602082015250565b60006127ef602883611d62565b91506127fa82612793565b604082019050919050565b6000602082019050818103600083015261281e816127e2565b9050919050565b7f546865207061727469636970616e74732063616e206f6e6c792063616c6c207460008201527f6869732066756e6374696f6e206166746572203120646179206966207468652060208201527f6f776e657220686173206e6f742063616c6c65642069742e0000000000000000604082015250565b60006128a7605883611d62565b91506128b282612825565b606082019050919050565b600060208201905081810360008301526128d68161289a565b9050919050565b7f4f6e6c792074686520636c69656e742063616e2063616c6c207468697320667560008201527f6e6374696f6e2e00000000000000000000000000000000000000000000000000602082015250565b6000612939602783611d62565b9150612944826128dd565b604082019050919050565b600060208201905081810360008301526129688161292c565b9050919050565b7f5468652063757272656e7420726f756e64206973206e6f7420636f6d706c657460008201527f65642e0000000000000000000000000000000000000000000000000000000000602082015250565b60006129cb602383611d62565b91506129d68261296f565b604082019050919050565b600060208201905081810360008301526129fa816129be565b9050919050565b7f506c6561736520707574206465706f736974652e000000000000000000000000600082015250565b6000612a37601483611d62565b9150612a4282612a01565b602082019050919050565b60006020820190508181036000830152612a6681612a2a565b9050919050565b7f54686520636f6e7472616374206973206e6f7420696e20746865206576616c7560008201527f6174696f6e2073746167652e0000000000000000000000000000000000000000602082015250565b6000612ac9602c83611d62565b9150612ad482612a6d565b604082019050919050565b60006020820190508181036000830152612af881612abc565b9050919050565b7f4e487b7100000000000000000000000000000000000000000000000000000000600052603260045260246000fd5b6000604082019050612b436000830185611cd4565b612b506020830184611cd4565b9392505050565b60008190508160005260206000209050919050565b60008154612b79816125ac565b612b838186611d62565b94506001821660008114612b9e5760018114612bb057612be3565b60ff1983168652602086019350612be3565b612bb985612b57565b60005b83811015612bdb57815481890152600182019150602081019050612bbc565b808801955050505b50505092915050565b600060c082019050612c016000830189611cd4565b8181036020830152612c138188612b6c565b90508181036040830152612c278187611da6565b90508181036060830152612c3b8186611da6565b90508181036080830152612c4f8185612b6c565b905081810360a0830152612c638184612b6c565b9050979650505050505050565b600081905092915050565b60008190508160005260206000209050919050565b60008154612c9d816125ac565b612ca78186612c70565b94506001821660008114612cc25760018114612cd357612d06565b60ff19831686528186019350612d06565b612cdc85612c7b565b60005b83811015612cfe57815481890152600182019150602081019050612cdf565b838801955050505b50505092915050565b6000612d1b8284612c90565b915081905092915050565b6000608082019050612d3b6000830187611cd4565b612d486020830186611cd4565b8181036040830152612d5a8185612b6c565b9050612d696060830184611cd4565b95945050505050565b7f4e6f7420656e6f7567682066756e647320696e2074686520726577617264207060008201527f6f6f6c2e00000000000000000000000000000000000000000000000000000000602082015250565b6000612dce602483611d62565b9150612dd982612d72565b604082019050919050565b60006020820190508181036000830152612dfd81612dc1565b9050919050565b6000612e0f82611cca565b9150612e1a83611cca565b9250817fffffffffffffffffffffffffffffffffffffffffffffffffffffffffffffffff0483118215151615612e5357612e52612430565b5b828202905092915050565b6000608082019050612e736000830187611cd4565b612e806020830186611cd4565b612e8d6040830185611cd4565b612e9a6060830184611e33565b9594505050505056fea264697066735822122089d6703af57ba4fad54496b317086dcd0d7adae15d2889bedd3db8cd006b19f064736f6c634300080d0033a2646970667358221220cb8a13191c6c063f0f15cc7cfcbc9831a74b5b390f2e2cdd2bfbf497f388370964736f6c634300080d0033",
  "immutableReferences": {},
  "source": "// SPDX-License-Identifier: MIT\npragma solidity ^0.8.0;\nimport \"./MlContract.sol\";\n\ncontract MlPlatformFactory {\n    // Record the deployed MlPlatforms\n    address public platformOwner;\n    address public oracleAddress = 0xAc6c80B1AFb4F2a4B1E663D58EC3332F8780e0a2; // For loacl testnet environment TODO: Change for testnet\n    uint256 public contractCount = 0;\n    uint256 public startBlock;\n    mapping(address => uint256[]) public ownerToContractList;\n    mapping(uint256 => address) public idToContract;\n    mapping(address => uint256) public contractToIndex;\n\n    // Initialize the contract which will set the \n    constructor() {\n        platformOwner = msg.sender;\n        startBlock = block.number;\n    }\n\n    // Modifiers to used\n    modifier onlyOwner() {\n        require(msg.sender == platformOwner, \"Only the contract owner can call this function.\");\n        _;\n    }\n\n    // Event to emit when a new MlPlatform is created for off-chain Oracle to listen to\n    event MlPlatformCreated(address owner, address mlPlatformAddress, uint256 contractId, uint256 ddlTimestamp, uint256 depositRequired);\n\n    // Function to create a new MlPlatform\n    function createMlPlatform(\n        string memory _modelAddress,\n        string memory _testDataHash,\n        string memory _testDataLabelHash,\n        uint256 _timestamp,\n        uint256 _depositRequired\n    ) public payable {\n        require(msg.value >= 10000, \"Please put enough reward.\");\n        require(_timestamp >= block.timestamp, \"Please put a valid ddl timestamp.\");\n        MlContract newContract = (new MlContract){ value : msg.value }(oracleAddress, msg.sender, _modelAddress, _testDataHash, _testDataLabelHash, _timestamp, _depositRequired);\n        address contractAdd = address(newContract);\n        contractCount++;\n        ownerToContractList[msg.sender].push(contractCount);\n        idToContract[contractCount] = contractAdd;\n        contractToIndex[contractAdd] = contractCount;\n        emit MlPlatformCreated(msg.sender, contractAdd, contractCount, _timestamp, _depositRequired);\n    }\n\n    function transferPlatformOwnership(address _newOwner) public onlyOwner {\n        platformOwner = _newOwner;\n    }\n\n    function getContractList(address _owner) public view returns (uint256[] memory) {\n        return ownerToContractList[_owner];\n    }\n}\n",
  "sourcePath": "/Users/lokki/Downloads/FYP/fyp_project/ml-platform-contract/contracts/MlPlatformFactory.sol",
  "compiler": {
    "name": "solc",
    "version": "0.8.13+commit.abaa5c0e.Emscripten.clang"
  },
  "schemaVersion": "3.4.16",
  "updatedAt": "2024-04-21T17:03:50.628Z",
  "networkType": "ethereum",
  "devdoc": {
    "kind": "dev",
    "methods": {},
    "version": 1
  },
  "userdoc": {
    "kind": "user",
    "methods": {},
    "version": 1
  }
}