{
  "contractName": "MlPlatformFactory",
  "abi": [
    {
      "inputs": [],
      "stateMutability": "nonpayable",
      "type": "constructor"
    },
    {
      "anonymous": false,
      "inputs": [
        {
          "indexed": true,
          "internalType": "address",
          "name": "owner",
          "type": "address"
        },
        {
          "indexed": false,
          "internalType": "address",
          "name": "mlPlatformAddress",
          "type": "address"
        },
        {
          "indexed": false,
          "internalType": "uint256",
          "name": "contractId",
          "type": "uint256"
        }
      ],
      "name": "MlPlatformCreated",
      "type": "event"
    },
    {
      "inputs": [],
      "name": "contractCount",
      "outputs": [
        {
          "internalType": "uint256",
          "name": "",
          "type": "uint256"
        }
      ],
      "stateMutability": "view",
      "type": "function",
      "constant": true
    },
    {
      "inputs": [
        {
          "internalType": "address",
          "name": "",
          "type": "address"
        }
      ],
      "name": "contractToIndex",
      "outputs": [
        {
          "internalType": "uint256",
          "name": "",
          "type": "uint256"
        }
      ],
      "stateMutability": "view",
      "type": "function",
      "constant": true
    },
    {
      "inputs": [
        {
          "internalType": "uint256",
          "name": "",
          "type": "uint256"
        }
      ],
      "name": "idToContract",
      "outputs": [
        {
          "internalType": "address",
          "name": "",
          "type": "address"
        }
      ],
      "stateMutability": "view",
      "type": "function",
      "constant": true
    },
    {
      "inputs": [],
      "name": "oracleAddress",
      "outputs": [
        {
          "internalType": "address",
          "name": "",
          "type": "address"
        }
      ],
      "stateMutability": "view",
      "type": "function",
      "constant": true
    },
    {
      "inputs": [
        {
          "internalType": "address",
          "name": "",
          "type": "address"
        },
        {
          "internalType": "uint256",
          "name": "",
          "type": "uint256"
        }
      ],
      "name": "ownerToContractList",
      "outputs": [
        {
          "internalType": "uint256",
          "name": "",
          "type": "uint256"
        }
      ],
      "stateMutability": "view",
      "type": "function",
      "constant": true
    },
    {
      "inputs": [],
      "name": "platformOwner",
      "outputs": [
        {
          "internalType": "address",
          "name": "",
          "type": "address"
        }
      ],
      "stateMutability": "view",
      "type": "function",
      "constant": true
    },
    {
      "inputs": [
        {
          "internalType": "string",
          "name": "_modelAddress",
          "type": "string"
        },
        {
          "internalType": "string",
          "name": "_testDataHash",
          "type": "string"
        },
        {
          "internalType": "string",
          "name": "_testDataLabelHash",
          "type": "string"
        }
      ],
      "name": "createMlPlatform",
      "outputs": [],
      "stateMutability": "payable",
      "type": "function",
      "payable": true
    },
    {
      "inputs": [
        {
          "internalType": "address",
          "name": "_newOwner",
          "type": "address"
        }
      ],
      "name": "transferPlatformOwnership",
      "outputs": [],
      "stateMutability": "nonpayable",
      "type": "function"
    },
    {
      "inputs": [
        {
          "internalType": "address",
          "name": "_owner",
          "type": "address"
        }
      ],
      "name": "getContractList",
      "outputs": [
        {
          "internalType": "uint256[]",
          "name": "",
          "type": "uint256[]"
        }
      ],
      "stateMutability": "view",
      "type": "function",
      "constant": true
    }
  ],
  "bytecode": "0x608060405273ac6c80b1afb4f2a4b1e663d58ec3332f8780e0a2600160006101000a81548173ffffffffffffffffffffffffffffffffffffffff021916908373ffffffffffffffffffffffffffffffffffffffff160217905550600060025534801561006a57600080fd5b50336000806101000a81548173ffffffffffffffffffffffffffffffffffffffff021916908373ffffffffffffffffffffffffffffffffffffffff160217905550613c28806100ba6000396000f3fe608060405260043610620000925760003560e01c80635fddcc6011620000615780635fddcc60146200017d5780638736381a14620001c157806389954b9b14620001f15780638eaf1d9d1462000235578063a89ae4ba14620002555762000092565b8063046c155314620000975780634df8ccb114620000c557806350ded7ba14620000f5578063544d34a91462000139575b600080fd5b348015620000a457600080fd5b50620000c36004803603810190620000bd91906200072b565b62000285565b005b348015620000d257600080fd5b50620000dd62000359565b604051620000ec91906200076e565b60405180910390f35b3480156200010257600080fd5b506200012160048036038101906200011b91906200072b565b6200037d565b604051620001309190620007a6565b60405180910390f35b3480156200014657600080fd5b506200016560048036038101906200015f91906200072b565b62000395565b60405162000174919062000891565b60405180910390f35b3480156200018a57600080fd5b50620001a96004803603810190620001a39190620008e6565b6200042e565b604051620001b891906200076e565b60405180910390f35b348015620001ce57600080fd5b50620001d962000461565b604051620001e89190620007a6565b60405180910390f35b348015620001fe57600080fd5b506200021d600480360381019062000217919062000918565b62000467565b6040516200022c9190620007a6565b60405180910390f35b6200025360048036038101906200024d919062000ac1565b62000499565b005b3480156200026257600080fd5b506200026d6200067e565b6040516200027c91906200076e565b60405180910390f35b60008054906101000a900473ffffffffffffffffffffffffffffffffffffffff1673ffffffffffffffffffffffffffffffffffffffff163373ffffffffffffffffffffffffffffffffffffffff161462000316576040517f08c379a00000000000000000000000000000000000000000000000000000000081526004016200030d9062000c01565b60405180910390fd5b806000806101000a81548173ffffffffffffffffffffffffffffffffffffffff021916908373ffffffffffffffffffffffffffffffffffffffff16021790555050565b60008054906101000a900473ffffffffffffffffffffffffffffffffffffffff1681565b60056020528060005260406000206000915090505481565b6060600360008373ffffffffffffffffffffffffffffffffffffffff1673ffffffffffffffffffffffffffffffffffffffff1681526020019081526020016000208054806020026020016040519081016040528092919081815260200182805480156200042257602002820191906000526020600020905b8154815260200190600101908083116200040d575b50505050509050919050565b60046020528060005260406000206000915054906101000a900473ffffffffffffffffffffffffffffffffffffffff1681565b60025481565b600360205281600052604060002081815481106200048457600080fd5b90600052602060002001600091509150505481565b600034600160009054906101000a900473ffffffffffffffffffffffffffffffffffffffff1633868686604051620004d190620006a4565b620004e195949392919062000ca5565b6040518091039082f0905080158015620004ff573d6000803e3d6000fd5b5090506000819050600260008154809291906200051c9062000d46565b9190505550600360003373ffffffffffffffffffffffffffffffffffffffff1673ffffffffffffffffffffffffffffffffffffffff16815260200190815260200160002060025490806001815401808255809150506001900390600052602060002001600090919091909150558060046000600254815260200190815260200160002060006101000a81548173ffffffffffffffffffffffffffffffffffffffff021916908373ffffffffffffffffffffffffffffffffffffffff160217905550600254600560008373ffffffffffffffffffffffffffffffffffffffff1673ffffffffffffffffffffffffffffffffffffffff168152602001908152602001600020819055503373ffffffffffffffffffffffffffffffffffffffff167fbb38444e4ded095ca8063899fc2a710d4de79acf39ddbcc73f1aecd080d20534826002546040516200066f92919062000d93565b60405180910390a25050505050565b600160009054906101000a900473ffffffffffffffffffffffffffffffffffffffff1681565b612e328062000dc183390190565b6000604051905090565b600080fd5b600080fd5b600073ffffffffffffffffffffffffffffffffffffffff82169050919050565b6000620006f382620006c6565b9050919050565b6200070581620006e6565b81146200071157600080fd5b50565b6000813590506200072581620006fa565b92915050565b600060208284031215620007445762000743620006bc565b5b6000620007548482850162000714565b91505092915050565b6200076881620006e6565b82525050565b60006020820190506200078560008301846200075d565b92915050565b6000819050919050565b620007a0816200078b565b82525050565b6000602082019050620007bd600083018462000795565b92915050565b600081519050919050565b600082825260208201905092915050565b6000819050602082019050919050565b620007fa816200078b565b82525050565b60006200080e8383620007ef565b60208301905092915050565b6000602082019050919050565b60006200083482620007c3565b620008408185620007ce565b93506200084d83620007df565b8060005b838110156200088457815162000868888262000800565b975062000875836200081a565b92505060018101905062000851565b5085935050505092915050565b60006020820190508181036000830152620008ad818462000827565b905092915050565b620008c0816200078b565b8114620008cc57600080fd5b50565b600081359050620008e081620008b5565b92915050565b600060208284031215620008ff57620008fe620006bc565b5b60006200090f84828501620008cf565b91505092915050565b60008060408385031215620009325762000931620006bc565b5b6000620009428582860162000714565b92505060206200095585828601620008cf565b9150509250929050565b600080fd5b600080fd5b6000601f19601f8301169050919050565b7f4e487b7100000000000000000000000000000000000000000000000000000000600052604160045260246000fd5b620009b48262000969565b810181811067ffffffffffffffff82111715620009d657620009d56200097a565b5b80604052505050565b6000620009eb620006b2565b9050620009f98282620009a9565b919050565b600067ffffffffffffffff82111562000a1c5762000a1b6200097a565b5b62000a278262000969565b9050602081019050919050565b82818337600083830152505050565b600062000a5a62000a5484620009fe565b620009df565b90508281526020810184848401111562000a795762000a7862000964565b5b62000a8684828562000a34565b509392505050565b600082601f83011262000aa65762000aa56200095f565b5b813562000ab884826020860162000a43565b91505092915050565b60008060006060848603121562000add5762000adc620006bc565b5b600084013567ffffffffffffffff81111562000afe5762000afd620006c1565b5b62000b0c8682870162000a8e565b935050602084013567ffffffffffffffff81111562000b305762000b2f620006c1565b5b62000b3e8682870162000a8e565b925050604084013567ffffffffffffffff81111562000b625762000b61620006c1565b5b62000b708682870162000a8e565b9150509250925092565b600082825260208201905092915050565b7f4f6e6c792074686520636f6e7472616374206f776e65722063616e2063616c6c60008201527f20746869732066756e6374696f6e2e0000000000000000000000000000000000602082015250565b600062000be9602f8362000b7a565b915062000bf68262000b8b565b604082019050919050565b6000602082019050818103600083015262000c1c8162000bda565b9050919050565b600081519050919050565b60005b8381101562000c4e57808201518184015260208101905062000c31565b8381111562000c5e576000848401525b50505050565b600062000c718262000c23565b62000c7d818562000b7a565b935062000c8f81856020860162000c2e565b62000c9a8162000969565b840191505092915050565b600060a08201905062000cbc60008301886200075d565b62000ccb60208301876200075d565b818103604083015262000cdf818662000c64565b9050818103606083015262000cf5818562000c64565b9050818103608083015262000d0b818462000c64565b90509695505050505050565b7f4e487b7100000000000000000000000000000000000000000000000000000000600052601160045260246000fd5b600062000d53826200078b565b91507fffffffffffffffffffffffffffffffffffffffffffffffffffffffffffffffff820362000d885762000d8762000d17565b5b600182019050919050565b600060408201905062000daa60008301856200075d565b62000db9602083018462000795565b939250505056fe6080604052600a80556001601055600160115560405162002e3238038062002e32833981810160405281019062000037919062000424565b606434116200007d576040517f08c379a000000000000000000000000000000000000000000000000000000000815260040162000074906200056a565b60405180910390fd5b846000806101000a81548173ffffffffffffffffffffffffffffffffffffffff021916908373ffffffffffffffffffffffffffffffffffffffff16021790555083600160006101000a81548173ffffffffffffffffffffffffffffffffffffffff021916908373ffffffffffffffffffffffffffffffffffffffff16021790555082600390805190602001906200011692919062000172565b5081600490805190602001906200012f92919062000172565b5080600590805190602001906200014892919062000172565b504360028190555034600681905550600060088190555060016007819055505050505050620005f0565b8280546200018090620005bb565b90600052602060002090601f016020900481019282620001a45760008555620001f0565b82601f10620001bf57805160ff1916838001178555620001f0565b82800160010185558215620001f0579182015b82811115620001ef578251825591602001919060010190620001d2565b5b509050620001ff919062000203565b5090565b5b808211156200021e57600081600090555060010162000204565b5090565b6000604051905090565b600080fd5b600080fd5b600073ffffffffffffffffffffffffffffffffffffffff82169050919050565b6000620002638262000236565b9050919050565b620002758162000256565b81146200028157600080fd5b50565b60008151905062000295816200026a565b92915050565b600080fd5b600080fd5b6000601f19601f8301169050919050565b7f4e487b7100000000000000000000000000000000000000000000000000000000600052604160045260246000fd5b620002f082620002a5565b810181811067ffffffffffffffff82111715620003125762000311620002b6565b5b80604052505050565b60006200032762000222565b9050620003358282620002e5565b919050565b600067ffffffffffffffff821115620003585762000357620002b6565b5b6200036382620002a5565b9050602081019050919050565b60005b838110156200039057808201518184015260208101905062000373565b83811115620003a0576000848401525b50505050565b6000620003bd620003b7846200033a565b6200031b565b905082815260208101848484011115620003dc57620003db620002a0565b5b620003e984828562000370565b509392505050565b600082601f8301126200040957620004086200029b565b5b81516200041b848260208601620003a6565b91505092915050565b600080600080600060a086880312156200044357620004426200022c565b5b6000620004538882890162000284565b9550506020620004668882890162000284565b945050604086015167ffffffffffffffff8111156200048a576200048962000231565b5b6200049888828901620003f1565b935050606086015167ffffffffffffffff811115620004bc57620004bb62000231565b5b620004ca88828901620003f1565b925050608086015167ffffffffffffffff811115620004ee57620004ed62000231565b5b620004fc88828901620003f1565b9150509295509295909350565b600082825260208201905092915050565b7f506c6561736520707574206465706f736974652e000000000000000000000000600082015250565b60006200055260148362000509565b91506200055f826200051a565b602082019050919050565b60006020820190508181036000830152620005858162000543565b9050919050565b7f4e487b7100000000000000000000000000000000000000000000000000000000600052602260045260246000fd5b60006002820490506001821680620005d457607f821691505b602082108103620005ea57620005e96200058c565b5b50919050565b61283280620006006000396000f3fe6080604052600436106101355760003560e01c80636a84a985116100ab578063ce606ee01161006f578063ce606ee0146103fe578063d094ae4114610429578063df12533314610466578063f07ff6411461048f578063f2fde38b146104ba578063ff28bcc2146104e357610135565b80636a84a985146103155780637816e2ed146103405780638d8a55e71461036b578063a89ae4ba146103a8578063c6ee20d2146103d357610135565b80633c3ccc44116100fd5780633c3ccc441461023857806348cd4cb1146102425780634c69c00f1461026d5780635841dcb314610296578063622aef9e146102bf57806366666aa9146102ea57610135565b806323a21c4c1461013a57806326232a2e146101565780633597d0e71461018157806338495cdf146101be57806339588f10146101fb575b600080fd5b610154600480360381019061014f9190611814565b6104ed565b005b34801561016257600080fd5b5061016b6107b2565b6040516101789190611876565b60405180910390f35b34801561018d57600080fd5b506101a860048036038101906101a391906118bd565b6107b8565b6040516101b59190611972565b60405180910390f35b3480156101ca57600080fd5b506101e560048036038101906101e091906118bd565b610858565b6040516101f291906119d5565b60405180910390f35b34801561020757600080fd5b50610222600480360381019061021d91906118bd565b61088b565b60405161022f9190611876565b60405180910390f35b6102406108a3565b005b34801561024e57600080fd5b506102576109d3565b6040516102649190611876565b60405180910390f35b34801561027957600080fd5b50610294600480360381019061028f9190611a1c565b6109d9565b005b3480156102a257600080fd5b506102bd60048036038101906102b89190611a49565b610aac565b005b3480156102cb57600080fd5b506102d4610e0c565b6040516102e19190611876565b60405180910390f35b3480156102f657600080fd5b506102ff610e12565b60405161030c9190611876565b60405180910390f35b34801561032157600080fd5b5061032a610e18565b6040516103379190611876565b60405180910390f35b34801561034c57600080fd5b50610355610e1e565b6040516103629190611876565b60405180910390f35b34801561037757600080fd5b50610392600480360381019061038d9190611a1c565b610e24565b60405161039f9190611876565b60405180910390f35b3480156103b457600080fd5b506103bd610e3c565b6040516103ca91906119d5565b60405180910390f35b3480156103df57600080fd5b506103e8610e60565b6040516103f59190611876565b60405180910390f35b34801561040a57600080fd5b50610413610e66565b60405161042091906119d5565b60405180910390f35b34801561043557600080fd5b50610450600480360381019061044b91906118bd565b610e8c565b60405161045d9190611876565b60405180910390f35b34801561047257600080fd5b5061048d60048036038101906104889190611bbf565b610ea4565b005b34801561049b57600080fd5b506104a46110a2565b6040516104b19190611876565b60405180910390f35b3480156104c657600080fd5b506104e160048036038101906104dc9190611a1c565b6110a8565b005b6104eb61117c565b005b600160075414610532576040517f08c379a000000000000000000000000000000000000000000000000000000000815260040161052990611d1c565b60405180910390fd5b60643411610575576040517f08c379a000000000000000000000000000000000000000000000000000000000815260040161056c90611dae565b60405180910390fd5b600a54600960008282546105899190611dfd565b925050819055506000600a54346105a09190611e53565b905080600860008282546105b49190611dfd565b92505081905550600080600c60003373ffffffffffffffffffffffffffffffffffffffff1673ffffffffffffffffffffffffffffffffffffffff16815260200190815260200160002054036106da5733600b6000601154815260200190815260200160002060006101000a81548173ffffffffffffffffffffffffffffffffffffffff021916908373ffffffffffffffffffffffffffffffffffffffff160217905550601154600c60003373ffffffffffffffffffffffffffffffffffffffff1673ffffffffffffffffffffffffffffffffffffffff168152602001908152602001600020819055506064600e60006011548152602001908152602001600020819055506011549050601160008154809291906106d090611e87565b919050555061071d565b600c60003373ffffffffffffffffffffffffffffffffffffffff1673ffffffffffffffffffffffffffffffffffffffff1681526020019081526020016000205490505b81600f60008381526020019081526020016000208190555082600d6000838152602001908152602001600020908051906020019061075c929190611617565b507f87ca3e1742bfbecb6f148e63fb9bfdccee8032e23618cf9a01b05cabfb1a4d678184600e600085815260200190815260200160002054436040516107a59493929190611ecf565b60405180910390a1505050565b600a5481565b600d60205280600052604060002060009150905080546107d790611f4a565b80601f016020809104026020016040519081016040528092919081815260200182805461080390611f4a565b80156108505780601f1061082557610100808354040283529160200191610850565b820191906000526020600020905b81548152906001019060200180831161083357829003601f168201915b505050505081565b600b6020528060005260406000206000915054906101000a900473ffffffffffffffffffffffffffffffffffffffff1681565b600e6020528060005260406000206000915090505481565b6003600754146108e8576040517f08c379a00000000000000000000000000000000000000000000000000000000081526004016108df90611fed565b60405180910390fd5b600160009054906101000a900473ffffffffffffffffffffffffffffffffffffffff1673ffffffffffffffffffffffffffffffffffffffff163373ffffffffffffffffffffffffffffffffffffffff1614610978576040517f08c379a000000000000000000000000000000000000000000000000000000000815260040161096f9061207f565b60405180910390fd5b600034116109bb576040517f08c379a00000000000000000000000000000000000000000000000000000000081526004016109b2906120eb565b60405180910390fd5b34600681905550600160078190555043600281905550565b60025481565b600160009054906101000a900473ffffffffffffffffffffffffffffffffffffffff1673ffffffffffffffffffffffffffffffffffffffff163373ffffffffffffffffffffffffffffffffffffffff1614610a69576040517f08c379a0000000000000000000000000000000000000000000000000000000008152600401610a609061207f565b60405180910390fd5b806000806101000a81548173ffffffffffffffffffffffffffffffffffffffff021916908373ffffffffffffffffffffffffffffffffffffffff16021790555050565b60008054906101000a900473ffffffffffffffffffffffffffffffffffffffff1673ffffffffffffffffffffffffffffffffffffffff163373ffffffffffffffffffffffffffffffffffffffff161480610b535750600160009054906101000a900473ffffffffffffffffffffffffffffffffffffffff1673ffffffffffffffffffffffffffffffffffffffff163373ffffffffffffffffffffffffffffffffffffffff16145b80610b9e57506000600c60003373ffffffffffffffffffffffffffffffffffffffff1673ffffffffffffffffffffffffffffffffffffffff1681526020019081526020016000205414155b610bdd576040517f08c379a0000000000000000000000000000000000000000000000000000000008152600401610bd49061217d565b60405180910390fd5b600160075414610c22576040517f08c379a0000000000000000000000000000000000000000000000000000000008152600401610c1990611d1c565b60405180910390fd5b600160009054906101000a900473ffffffffffffffffffffffffffffffffffffffff1673ffffffffffffffffffffffffffffffffffffffff163373ffffffffffffffffffffffffffffffffffffffff161480610cc9575060008054906101000a900473ffffffffffffffffffffffffffffffffffffffff1673ffffffffffffffffffffffffffffffffffffffff163373ffffffffffffffffffffffffffffffffffffffff16145b15610d2357600a600254610cdd9190611dfd565b4311610d1e576040517f08c379a0000000000000000000000000000000000000000000000000000000008152600401610d159061220f565b60405180910390fd5b610df6565b600f600254610d329190611dfd565b4311610d73576040517f08c379a0000000000000000000000000000000000000000000000000000000008152600401610d6a906122c7565b60405180910390fd5b6000600c60003373ffffffffffffffffffffffffffffffffffffffff1673ffffffffffffffffffffffffffffffffffffffff1681526020019081526020016000205403610df5576040517f08c379a0000000000000000000000000000000000000000000000000000000008152600401610dec90612359565b60405180910390fd5b5b6002600781905550610e088282611227565b5050565b60095481565b60065481565b60105481565b60115481565b600c6020528060005260406000206000915090505481565b60008054906101000a900473ffffffffffffffffffffffffffffffffffffffff1681565b60075481565b600160009054906101000a900473ffffffffffffffffffffffffffffffffffffffff1681565b600f6020528060005260406000206000915090505481565b60008054906101000a900473ffffffffffffffffffffffffffffffffffffffff1673ffffffffffffffffffffffffffffffffffffffff163373ffffffffffffffffffffffffffffffffffffffff1614610f32576040517f08c379a0000000000000000000000000000000000000000000000000000000008152600401610f29906123eb565b60405180910390fd5b600260075414610f77576040517f08c379a0000000000000000000000000000000000000000000000000000000008152600401610f6e9061247d565b60405180910390fd5b60005b835181101561104457828181518110610f9657610f9561249d565b5b6020026020010151600e6000868481518110610fb557610fb461249d565b5b60200260200101518152602001908152602001600020819055506000828281518110610fe457610fe361249d565b5b60200260200101511315611031576110308482815181106110085761100761249d565b5b60200260200101518383815181106110235761102261249d565b5b6020026020010151611404565b5b808061103c90611e87565b915050610f7a565b50836003908051906020019061105b929190611617565b507f954d615937b753cf2f287614528733409a3de499a41a341cd1dbf43b24ab0c0f8560405161108b9190611876565b60405180910390a160036007819055505050505050565b60085481565b600160009054906101000a900473ffffffffffffffffffffffffffffffffffffffff1673ffffffffffffffffffffffffffffffffffffffff163373ffffffffffffffffffffffffffffffffffffffff1614611138576040517f08c379a000000000000000000000000000000000000000000000000000000000815260040161112f9061207f565b60405180910390fd5b80600160006101000a81548173ffffffffffffffffffffffffffffffffffffffff021916908373ffffffffffffffffffffffffffffffffffffffff16021790555050565b600160009054906101000a900473ffffffffffffffffffffffffffffffffffffffff1673ffffffffffffffffffffffffffffffffffffffff163373ffffffffffffffffffffffffffffffffffffffff161461120c576040517f08c379a00000000000000000000000000000000000000000000000000000000081526004016112039061207f565b60405180910390fd5b346006600082825461121e9190611dfd565b92505081905550565b600060105490507faa6d410a17ec6f559fb71643fa84c722d4a372374e7227298461831a170bfbc1816006546040516112619291906124cc565b60405180910390a17fee4d138a9a331ee506450fae35e80901dc1d1a0f88d7fe870fabfc6fe8dcdc508160038585600460056040516112a59695949392919061258a565b60405180910390a16000600190505b6011548110156113af576040518060200160405280600081525080519060200120600d60008381526020019081526020016000206040516112f591906126ad565b60405180910390201461139c577f3910115e651db63dac5c27949180dc96d86ef98258722028d7794c96cd9aa48d8282600d6000858152602001908152602001600020600e60008681526020019081526020016000205460405161135c94939291906126c4565b60405180910390a160405180602001604052806000815250600d6000838152602001908152602001600020908051906020019061139a929190611617565b505b80806113a790611e87565b9150506112b4565b507f93a213c4c585fbfd035779d3ae8b51184493956fde5f124674c38a9927e389f7816040516113df9190611876565b60405180910390a1601060008154809291906113fa90611e87565b9190505550505050565b806006541015611449576040517f08c379a000000000000000000000000000000000000000000000000000000000815260040161144090612782565b60405180910390fd5b806006600082825461145b9190611e53565b92505081905550600b600083815260200190815260200160002060009054906101000a900473ffffffffffffffffffffffffffffffffffffffff1673ffffffffffffffffffffffffffffffffffffffff166108fc6001836114bc91906127a2565b9081150290604051600060405180830381858888f193505050501580156114e7573d6000803e3d6000fd5b507f4d7828f2aa36030cc63cdea79ec646099aa121d019f1a90edb55078939fb84ea82826040516115199291906124cc565b60405180910390a1600b600083815260200190815260200160002060009054906101000a900473ffffffffffffffffffffffffffffffffffffffff1673ffffffffffffffffffffffffffffffffffffffff166108fc600f6000858152602001908152602001600020549081150290604051600060405180830381858888f193505050501580156115ad573d6000803e3d6000fd5b506000600f6000848152602001908152602001600020819055507f43f1a62374b03888ce7ed69d5599d19e6aa7c4e5863ab594bdaae22bd3637aae82600f60008581526020019081526020016000205460405161160b9291906124cc565b60405180910390a15050565b82805461162390611f4a565b90600052602060002090601f016020900481019282611645576000855561168c565b82601f1061165e57805160ff191683800117855561168c565b8280016001018555821561168c579182015b8281111561168b578251825591602001919060010190611670565b5b509050611699919061169d565b5090565b5b808211156116b657600081600090555060010161169e565b5090565b6000604051905090565b600080fd5b600080fd5b600080fd5b600080fd5b6000601f19601f8301169050919050565b7f4e487b7100000000000000000000000000000000000000000000000000000000600052604160045260246000fd5b611721826116d8565b810181811067ffffffffffffffff821117156117405761173f6116e9565b5b80604052505050565b60006117536116ba565b905061175f8282611718565b919050565b600067ffffffffffffffff82111561177f5761177e6116e9565b5b611788826116d8565b9050602081019050919050565b82818337600083830152505050565b60006117b76117b284611764565b611749565b9050828152602081018484840111156117d3576117d26116d3565b5b6117de848285611795565b509392505050565b600082601f8301126117fb576117fa6116ce565b5b813561180b8482602086016117a4565b91505092915050565b60006020828403121561182a576118296116c4565b5b600082013567ffffffffffffffff811115611848576118476116c9565b5b611854848285016117e6565b91505092915050565b6000819050919050565b6118708161185d565b82525050565b600060208201905061188b6000830184611867565b92915050565b61189a8161185d565b81146118a557600080fd5b50565b6000813590506118b781611891565b92915050565b6000602082840312156118d3576118d26116c4565b5b60006118e1848285016118a8565b91505092915050565b600081519050919050565b600082825260208201905092915050565b60005b83811015611924578082015181840152602081019050611909565b83811115611933576000848401525b50505050565b6000611944826118ea565b61194e81856118f5565b935061195e818560208601611906565b611967816116d8565b840191505092915050565b6000602082019050818103600083015261198c8184611939565b905092915050565b600073ffffffffffffffffffffffffffffffffffffffff82169050919050565b60006119bf82611994565b9050919050565b6119cf816119b4565b82525050565b60006020820190506119ea60008301846119c6565b92915050565b6119f9816119b4565b8114611a0457600080fd5b50565b600081359050611a16816119f0565b92915050565b600060208284031215611a3257611a316116c4565b5b6000611a4084828501611a07565b91505092915050565b60008060408385031215611a6057611a5f6116c4565b5b600083013567ffffffffffffffff811115611a7e57611a7d6116c9565b5b611a8a858286016117e6565b925050602083013567ffffffffffffffff811115611aab57611aaa6116c9565b5b611ab7858286016117e6565b9150509250929050565b600067ffffffffffffffff821115611adc57611adb6116e9565b5b602082029050602081019050919050565b600080fd5b6000819050919050565b611b0581611af2565b8114611b1057600080fd5b50565b600081359050611b2281611afc565b92915050565b6000611b3b611b3684611ac1565b611749565b90508083825260208201905060208402830185811115611b5e57611b5d611aed565b5b835b81811015611b875780611b738882611b13565b845260208401935050602081019050611b60565b5050509392505050565b600082601f830112611ba657611ba56116ce565b5b8135611bb6848260208601611b28565b91505092915050565b600080600080600060a08688031215611bdb57611bda6116c4565b5b6000611be9888289016118a8565b955050602086013567ffffffffffffffff811115611c0a57611c096116c9565b5b611c16888289016117e6565b945050604086013567ffffffffffffffff811115611c3757611c366116c9565b5b611c4388828901611b91565b935050606086013567ffffffffffffffff811115611c6457611c636116c9565b5b611c7088828901611b91565b925050608086013567ffffffffffffffff811115611c9157611c906116c9565b5b611c9d88828901611b91565b9150509295509295909350565b7f54686520636f6e7472616374206973206e6f7420696e20746865207375626d6960008201527f7373696f6e2073746167652e0000000000000000000000000000000000000000602082015250565b6000611d06602c836118f5565b9150611d1182611caa565b604082019050919050565b60006020820190508181036000830152611d3581611cf9565b9050919050565b7f506c6561736520707574206465706f73697465206174206c656173742031303060008201527f207765692e000000000000000000000000000000000000000000000000000000602082015250565b6000611d986025836118f5565b9150611da382611d3c565b604082019050919050565b60006020820190508181036000830152611dc781611d8b565b9050919050565b7f4e487b7100000000000000000000000000000000000000000000000000000000600052601160045260246000fd5b6000611e088261185d565b9150611e138361185d565b9250827fffffffffffffffffffffffffffffffffffffffffffffffffffffffffffffffff03821115611e4857611e47611dce565b5b828201905092915050565b6000611e5e8261185d565b9150611e698361185d565b925082821015611e7c57611e7b611dce565b5b828203905092915050565b6000611e928261185d565b91507fffffffffffffffffffffffffffffffffffffffffffffffffffffffffffffffff8203611ec457611ec3611dce565b5b600182019050919050565b6000608082019050611ee46000830187611867565b8181036020830152611ef68186611939565b9050611f056040830185611867565b611f126060830184611867565b95945050505050565b7f4e487b7100000000000000000000000000000000000000000000000000000000600052602260045260246000fd5b60006002820490506001821680611f6257607f821691505b602082108103611f7557611f74611f1b565b5b50919050565b7f5468652063757272656e7420726f756e64206973206e6f7420636f6d706c657460008201527f65642e0000000000000000000000000000000000000000000000000000000000602082015250565b6000611fd76023836118f5565b9150611fe282611f7b565b604082019050919050565b6000602082019050818103600083015261200681611fca565b9050919050565b7f4f6e6c792074686520636f6e7472616374206f776e65722063616e2063616c6c60008201527f20746869732066756e6374696f6e2e0000000000000000000000000000000000602082015250565b6000612069602f836118f5565b91506120748261200d565b604082019050919050565b600060208201905081810360008301526120988161205c565b9050919050565b7f506c6561736520707574206465706f736974652e000000000000000000000000600082015250565b60006120d56014836118f5565b91506120e08261209f565b602082019050919050565b60006020820190508181036000830152612104816120c8565b9050919050565b7f4f6e6c7920746865207061727469636970616e74732063616e2063616c6c207460008201527f6869732066756e6374696f6e2e00000000000000000000000000000000000000602082015250565b6000612167602d836118f5565b91506121728261210b565b604082019050919050565b600060208201905081810360008301526121968161215a565b9050919050565b7f546865207375626d697373696f6e20706572696f6420686173206e6f7420656e60008201527f646564207965742e000000000000000000000000000000000000000000000000602082015250565b60006121f96028836118f5565b91506122048261219d565b604082019050919050565b60006020820190508181036000830152612228816121ec565b9050919050565b7f546865207061727469636970616e74732063616e206f6e6c792063616c6c207460008201527f6869732066756e6374696f6e20616674657220313520626c6f636b732069662060208201527f746865206f776e657220686173206e6f742063616c6c65642069742e00000000604082015250565b60006122b1605c836118f5565b91506122bc8261222f565b606082019050919050565b600060208201905081810360008301526122e0816122a4565b9050919050565b7f4f6e6c792074686520636c69656e742063616e2063616c6c207468697320667560008201527f6e6374696f6e2e00000000000000000000000000000000000000000000000000602082015250565b60006123436027836118f5565b915061234e826122e7565b604082019050919050565b6000602082019050818103600083015261237281612336565b9050919050565b7f4f6e6c7920746865206f7261636c652063616e2063616c6c207468697320667560008201527f6e6374696f6e2e00000000000000000000000000000000000000000000000000602082015250565b60006123d56027836118f5565b91506123e082612379565b604082019050919050565b60006020820190508181036000830152612404816123c8565b9050919050565b7f54686520636f6e7472616374206973206e6f7420696e20746865206576616c7560008201527f6174696f6e2073746167652e0000000000000000000000000000000000000000602082015250565b6000612467602c836118f5565b91506124728261240b565b604082019050919050565b600060208201905081810360008301526124968161245a565b9050919050565b7f4e487b7100000000000000000000000000000000000000000000000000000000600052603260045260246000fd5b60006040820190506124e16000830185611867565b6124ee6020830184611867565b9392505050565b60008190508160005260206000209050919050565b6000815461251781611f4a565b61252181866118f5565b9450600182166000811461253c576001811461254e57612581565b60ff1983168652602086019350612581565b612557856124f5565b60005b838110156125795781548189015260018201915060208101905061255a565b808801955050505b50505092915050565b600060c08201905061259f6000830189611867565b81810360208301526125b1818861250a565b905081810360408301526125c58187611939565b905081810360608301526125d98186611939565b905081810360808301526125ed818561250a565b905081810360a0830152612601818461250a565b9050979650505050505050565b600081905092915050565b60008190508160005260206000209050919050565b6000815461263b81611f4a565b612645818661260e565b945060018216600081146126605760018114612671576126a4565b60ff198316865281860193506126a4565b61267a85612619565b60005b8381101561269c5781548189015260018201915060208101905061267d565b838801955050505b50505092915050565b60006126b9828461262e565b915081905092915050565b60006080820190506126d96000830187611867565b6126e66020830186611867565b81810360408301526126f8818561250a565b90506127076060830184611867565b95945050505050565b7f4e6f7420656e6f7567682066756e647320696e2074686520726577617264207060008201527f6f6f6c2e00000000000000000000000000000000000000000000000000000000602082015250565b600061276c6024836118f5565b915061277782612710565b604082019050919050565b6000602082019050818103600083015261279b8161275f565b9050919050565b60006127ad8261185d565b91506127b88361185d565b9250817fffffffffffffffffffffffffffffffffffffffffffffffffffffffffffffffff04831182151516156127f1576127f0611dce565b5b82820290509291505056fea26469706673582212202d6ba041df58645aafdefbcdde73f2270ca578231c8e34e0c01bf4208b61b6b064736f6c634300080d0033a2646970667358221220d3258b048b66daddefec6500fc3ca2fa57b300d8f702432b83980a423c84c73864736f6c634300080d0033",
  "immutableReferences": {},
  "source": "// SPDX-License-Identifier: MIT\npragma solidity ^0.8.0;\nimport \"./MlContract.sol\";\n\ncontract MlPlatformFactory {\n    // Record the deployed MlPlatforms\n    address public platformOwner;\n    address public oracleAddress = 0xAc6c80B1AFb4F2a4B1E663D58EC3332F8780e0a2; // For loacl testnet environment TODO: Change for testnet\n    uint256 public contractCount = 0;\n    mapping(address => uint256[]) public ownerToContractList;\n    mapping(uint256 => address) public idToContract;\n    mapping(address => uint256) public contractToIndex;\n\n    // Initialize the contract which will set the \n    constructor() {\n        platformOwner = msg.sender;\n    }\n\n    // Modifiers to used\n    modifier onlyOwner() {\n        require(msg.sender == platformOwner, \"Only the contract owner can call this function.\");\n        _;\n    }\n\n    // Event to emit when a new MlPlatform is created for off-chain Oracle to listen to\n    event MlPlatformCreated(address indexed owner, address mlPlatformAddress, uint256 contractId);\n\n    // Function to create a new MlPlatform\n    function createMlPlatform(\n        string memory _modelAddress,\n        string memory _testDataHash,\n        string memory _testDataLabelHash\n    ) public payable {\n        MlContract newContract = (new MlContract){ value : msg.value }(oracleAddress, msg.sender, _modelAddress, _testDataHash, _testDataLabelHash);\n        address contractAdd = address(newContract);\n        contractCount++;\n        ownerToContractList[msg.sender].push(contractCount);\n        idToContract[contractCount] = contractAdd;\n        contractToIndex[contractAdd] = contractCount;\n        emit MlPlatformCreated(msg.sender, contractAdd, contractCount);\n    }\n\n    function transferPlatformOwnership(address _newOwner) public onlyOwner {\n        platformOwner = _newOwner;\n    }\n\n    function getContractList(address _owner) public view returns (uint256[] memory) {\n        return ownerToContractList[_owner];\n    }\n}\n",
  "sourcePath": "/Users/lokki/Downloads/FYP/fyp_project/ml-platform-contract/contracts/MlPlatformFactory.sol",
  "compiler": {
    "name": "solc",
    "version": "0.8.13+commit.abaa5c0e.Emscripten.clang"
  },
  "schemaVersion": "3.4.16",
  "updatedAt": "2024-04-06T08:11:39.096Z",
  "networkType": "ethereum",
  "devdoc": {
    "kind": "dev",
    "methods": {},
    "version": 1
  },
  "userdoc": {
    "kind": "user",
    "methods": {},
    "version": 1
  }
}