{
  "contractName": "OracleTest",
  "abi": [
    {
      "inputs": [
        {
          "internalType": "address",
          "name": "_oracleAddress",
          "type": "address"
        },
        {
          "internalType": "address",
          "name": "_contractOwner",
          "type": "address"
        }
      ],
      "stateMutability": "nonpayable",
      "type": "constructor"
    },
    {
      "anonymous": false,
      "inputs": [
        {
          "indexed": false,
          "internalType": "uint256",
          "name": "requestId",
          "type": "uint256"
        },
        {
          "indexed": false,
          "internalType": "string",
          "name": "newModelAddress",
          "type": "string"
        }
      ],
      "name": "ComputationProvided",
      "type": "event"
    },
    {
      "anonymous": false,
      "inputs": [
        {
          "indexed": false,
          "internalType": "uint256",
          "name": "requestId",
          "type": "uint256"
        },
        {
          "indexed": false,
          "internalType": "string",
          "name": "modelAddress",
          "type": "string"
        },
        {
          "indexed": false,
          "internalType": "string",
          "name": "testDataAddress",
          "type": "string"
        }
      ],
      "name": "ComputationRequest",
      "type": "event"
    },
    {
      "inputs": [],
      "name": "nextRequestId",
      "outputs": [
        {
          "internalType": "uint256",
          "name": "",
          "type": "uint256"
        }
      ],
      "stateMutability": "view",
      "type": "function",
      "constant": true
    },
    {
      "inputs": [
        {
          "internalType": "uint256",
          "name": "",
          "type": "uint256"
        }
      ],
      "name": "requestNewModelAddress",
      "outputs": [
        {
          "internalType": "string",
          "name": "",
          "type": "string"
        }
      ],
      "stateMutability": "view",
      "type": "function",
      "constant": true
    },
    {
      "inputs": [
        {
          "internalType": "string",
          "name": "modelAddress",
          "type": "string"
        },
        {
          "internalType": "string",
          "name": "testDataAddress",
          "type": "string"
        }
      ],
      "name": "requestDataFromOracle",
      "outputs": [],
      "stateMutability": "nonpayable",
      "type": "function"
    },
    {
      "inputs": [
        {
          "internalType": "uint256",
          "name": "requestId",
          "type": "uint256"
        },
        {
          "internalType": "string",
          "name": "newModelAddress",
          "type": "string"
        }
      ],
      "name": "provideData",
      "outputs": [],
      "stateMutability": "nonpayable",
      "type": "function"
    },
    {
      "inputs": [
        {
          "internalType": "address",
          "name": "_newOracleAddress",
          "type": "address"
        }
      ],
      "name": "setOracleAddress",
      "outputs": [],
      "stateMutability": "nonpayable",
      "type": "function"
    },
    {
      "inputs": [
        {
          "internalType": "address",
          "name": "newOwner",
          "type": "address"
        }
      ],
      "name": "transferOwnership",
      "outputs": [],
      "stateMutability": "nonpayable",
      "type": "function"
    }
  ],
  "bytecode": "0x6080604052600160035534801561001557600080fd5b50604051610d6e380380610d6e83398181016040528101906100379190610122565b816000806101000a81548173ffffffffffffffffffffffffffffffffffffffff021916908373ffffffffffffffffffffffffffffffffffffffff16021790555080600160006101000a81548173ffffffffffffffffffffffffffffffffffffffff021916908373ffffffffffffffffffffffffffffffffffffffff1602179055505050610162565b600080fd5b600073ffffffffffffffffffffffffffffffffffffffff82169050919050565b60006100ef826100c4565b9050919050565b6100ff816100e4565b811461010a57600080fd5b50565b60008151905061011c816100f6565b92915050565b60008060408385031215610139576101386100bf565b5b60006101478582860161010d565b92505060206101588582860161010d565b9150509250929050565b610bfd806101716000396000f3fe608060405234801561001057600080fd5b50600436106100625760003560e01c8063413aa417146100675780634c69c00f146100975780636a84a985146100b357806397b2623c146100d1578063f2fde38b146100ed578063fa56651114610109575b600080fd5b610081600480360381019061007c91906105b1565b610125565b60405161008e9190610677565b60405180910390f35b6100b160048036038101906100ac91906106f7565b6101c5565b005b6100bb610298565b6040516100c89190610733565b60405180910390f35b6100eb60048036038101906100e69190610883565b61029e565b005b610107600480360381019061010291906106f7565b610391565b005b610123600480360381019061011e91906108df565b610465565b005b6002602052806000526040600020600091509050805461014490610986565b80601f016020809104026020016040519081016040528092919081815260200182805461017090610986565b80156101bd5780601f10610192576101008083540402835291602001916101bd565b820191906000526020600020905b8154815290600101906020018083116101a057829003601f168201915b505050505081565b600160009054906101000a900473ffffffffffffffffffffffffffffffffffffffff1673ffffffffffffffffffffffffffffffffffffffff163373ffffffffffffffffffffffffffffffffffffffff1614610255576040517f08c379a000000000000000000000000000000000000000000000000000000000815260040161024c90610a29565b60405180910390fd5b806000806101000a81548173ffffffffffffffffffffffffffffffffffffffff021916908373ffffffffffffffffffffffffffffffffffffffff16021790555050565b60035481565b60008054906101000a900473ffffffffffffffffffffffffffffffffffffffff1673ffffffffffffffffffffffffffffffffffffffff163373ffffffffffffffffffffffffffffffffffffffff161461032c576040517f08c379a000000000000000000000000000000000000000000000000000000000815260040161032390610abb565b60405180910390fd5b806002600084815260200190815260200160002090805190602001906103539291906104c4565b507fd02fb198076c646082241708faaaf6a6c102521f26acc514ea6efc5be26923a88282604051610385929190610adb565b60405180910390a15050565b600160009054906101000a900473ffffffffffffffffffffffffffffffffffffffff1673ffffffffffffffffffffffffffffffffffffffff163373ffffffffffffffffffffffffffffffffffffffff1614610421576040517f08c379a000000000000000000000000000000000000000000000000000000000815260040161041890610a29565b60405180910390fd5b80600160006101000a81548173ffffffffffffffffffffffffffffffffffffffff021916908373ffffffffffffffffffffffffffffffffffffffff16021790555050565b600060035490507f905c94540ffca9bc5df5c849c87d0f790f793fd1889fbbb7456dd65a7f2e851381848460405161049f93929190610b0b565b60405180910390a1600360008154809291906104ba90610b7f565b9190505550505050565b8280546104d090610986565b90600052602060002090601f0160209004810192826104f25760008555610539565b82601f1061050b57805160ff1916838001178555610539565b82800160010185558215610539579182015b8281111561053857825182559160200191906001019061051d565b5b509050610546919061054a565b5090565b5b8082111561056357600081600090555060010161054b565b5090565b6000604051905090565b600080fd5b600080fd5b6000819050919050565b61058e8161057b565b811461059957600080fd5b50565b6000813590506105ab81610585565b92915050565b6000602082840312156105c7576105c6610571565b5b60006105d58482850161059c565b91505092915050565b600081519050919050565b600082825260208201905092915050565b60005b838110156106185780820151818401526020810190506105fd565b83811115610627576000848401525b50505050565b6000601f19601f8301169050919050565b6000610649826105de565b61065381856105e9565b93506106638185602086016105fa565b61066c8161062d565b840191505092915050565b60006020820190508181036000830152610691818461063e565b905092915050565b600073ffffffffffffffffffffffffffffffffffffffff82169050919050565b60006106c482610699565b9050919050565b6106d4816106b9565b81146106df57600080fd5b50565b6000813590506106f1816106cb565b92915050565b60006020828403121561070d5761070c610571565b5b600061071b848285016106e2565b91505092915050565b61072d8161057b565b82525050565b60006020820190506107486000830184610724565b92915050565b600080fd5b600080fd5b7f4e487b7100000000000000000000000000000000000000000000000000000000600052604160045260246000fd5b6107908261062d565b810181811067ffffffffffffffff821117156107af576107ae610758565b5b80604052505050565b60006107c2610567565b90506107ce8282610787565b919050565b600067ffffffffffffffff8211156107ee576107ed610758565b5b6107f78261062d565b9050602081019050919050565b82818337600083830152505050565b6000610826610821846107d3565b6107b8565b90508281526020810184848401111561084257610841610753565b5b61084d848285610804565b509392505050565b600082601f83011261086a5761086961074e565b5b813561087a848260208601610813565b91505092915050565b6000806040838503121561089a57610899610571565b5b60006108a88582860161059c565b925050602083013567ffffffffffffffff8111156108c9576108c8610576565b5b6108d585828601610855565b9150509250929050565b600080604083850312156108f6576108f5610571565b5b600083013567ffffffffffffffff81111561091457610913610576565b5b61092085828601610855565b925050602083013567ffffffffffffffff81111561094157610940610576565b5b61094d85828601610855565b9150509250929050565b7f4e487b7100000000000000000000000000000000000000000000000000000000600052602260045260246000fd5b6000600282049050600182168061099e57607f821691505b6020821081036109b1576109b0610957565b5b50919050565b7f4f6e6c792074686520636f6e7472616374206f776e65722063616e2063616c6c60008201527f20746869732066756e6374696f6e2e0000000000000000000000000000000000602082015250565b6000610a13602f836105e9565b9150610a1e826109b7565b604082019050919050565b60006020820190508181036000830152610a4281610a06565b9050919050565b7f4f6e6c7920746865206f7261636c652063616e2063616c6c207468697320667560008201527f6e6374696f6e2e00000000000000000000000000000000000000000000000000602082015250565b6000610aa56027836105e9565b9150610ab082610a49565b604082019050919050565b60006020820190508181036000830152610ad481610a98565b9050919050565b6000604082019050610af06000830185610724565b8181036020830152610b02818461063e565b90509392505050565b6000606082019050610b206000830186610724565b8181036020830152610b32818561063e565b90508181036040830152610b46818461063e565b9050949350505050565b7f4e487b7100000000000000000000000000000000000000000000000000000000600052601160045260246000fd5b6000610b8a8261057b565b91507fffffffffffffffffffffffffffffffffffffffffffffffffffffffffffffffff8203610bbc57610bbb610b50565b5b60018201905091905056fea26469706673582212200591a0b9c3b8f433426f836f87fa58e8e04045eb48c4541ee76d205c9e98777964736f6c634300080d0033",
  "immutableReferences": {},
  "source": "// SPDX-License-Identifier: MIT\npragma solidity ^0.8.0;\n\ncontract OracleTest {\n    address private oracleAddress;\n    address private contractOwner;\n    event ComputationRequest(uint256 requestId, string modelAddress, string testDataAddress);\n    event ComputationProvided(uint256 requestId, string newModelAddress);\n\n    mapping(uint256 => string) public requestNewModelAddress;\n    uint256 public nextRequestId = 1;\n\n    constructor (address _oracleAddress, address _contractOwner) {\n        oracleAddress = _oracleAddress;\n        contractOwner = _contractOwner;\n    }\n\n    modifier onlyOracle() {\n        require(msg.sender == oracleAddress, \"Only the oracle can call this function.\");\n        _;\n    }\n\n    // Function to request computation from the oracle\n    function requestDataFromOracle(string memory modelAddress, string memory testDataAddress) public {\n        uint256 requestId = nextRequestId;\n        emit ComputationRequest(requestId, modelAddress, testDataAddress);\n        nextRequestId++;\n    }\n\n    // Function for the oracle to provide data\n    function provideData(uint256 requestId, string memory newModelAddress) public onlyOracle {\n        requestNewModelAddress[requestId] = newModelAddress;\n        emit ComputationProvided(requestId, newModelAddress);\n    }\n\n    // Function to update the oracle address\n    function setOracleAddress(address _newOracleAddress) public {\n        // Restrict this function to the contract owner\n        require(msg.sender == contractOwner, \"Only the contract owner can call this function.\");\n        oracleAddress = _newOracleAddress;\n    }\n\n    // Function to transfer ownership of the contract\n    function transferOwnership(address newOwner) public {\n        require(msg.sender == contractOwner, \"Only the contract owner can call this function.\");\n        contractOwner = newOwner;\n    }\n\n}\n",
  "sourcePath": "/Users/lokki/Downloads/FYP/fyp_project/ml-platform-contract/contracts/OracleTest.sol",
  "compiler": {
    "name": "solc",
    "version": "0.8.13+commit.abaa5c0e.Emscripten.clang"
  },
  "schemaVersion": "3.4.16",
  "updatedAt": "2024-03-26T14:45:03.113Z",
  "networkType": "ethereum",
  "devdoc": {
    "kind": "dev",
    "methods": {},
    "version": 1
  },
  "userdoc": {
    "kind": "user",
    "methods": {},
    "version": 1
  }
}